{
  "contractName": "CompoundLens",
  "abi": [
    {
      "constant": false,
      "inputs": [
        {
          "internalType": "contract CToken",
          "name": "cToken",
          "type": "address"
        }
      ],
      "name": "cTokenMetadata",
      "outputs": [
        {
          "components": [
            {
              "internalType": "address",
              "name": "cToken",
              "type": "address"
            },
            {
              "internalType": "uint256",
              "name": "exchangeRateCurrent",
              "type": "uint256"
            },
            {
              "internalType": "uint256",
              "name": "supplyRatePerBlock",
              "type": "uint256"
            },
            {
              "internalType": "uint256",
              "name": "borrowRatePerBlock",
              "type": "uint256"
            },
            {
              "internalType": "uint256",
              "name": "reserveFactorMantissa",
              "type": "uint256"
            },
            {
              "internalType": "uint256",
              "name": "totalBorrows",
              "type": "uint256"
            },
            {
              "internalType": "uint256",
              "name": "totalReserves",
              "type": "uint256"
            },
            {
              "internalType": "uint256",
              "name": "totalSupply",
              "type": "uint256"
            },
            {
              "internalType": "uint256",
              "name": "totalCash",
              "type": "uint256"
            },
            {
              "internalType": "bool",
              "name": "isListed",
              "type": "bool"
            },
            {
              "internalType": "uint256",
              "name": "collateralFactorMantissa",
              "type": "uint256"
            },
            {
              "internalType": "address",
              "name": "underlyingAssetAddress",
              "type": "address"
            },
            {
              "internalType": "uint256",
              "name": "cTokenDecimals",
              "type": "uint256"
            },
            {
              "internalType": "uint256",
              "name": "underlyingDecimals",
              "type": "uint256"
            }
          ],
          "internalType": "struct CompoundLens.CTokenMetadata",
          "name": "",
          "type": "tuple"
        }
      ],
      "payable": false,
      "stateMutability": "nonpayable",
      "type": "function"
    },
    {
      "constant": false,
      "inputs": [
        {
          "internalType": "contract CToken[]",
          "name": "cTokens",
          "type": "address[]"
        }
      ],
      "name": "cTokenMetadataAll",
      "outputs": [
        {
          "components": [
            {
              "internalType": "address",
              "name": "cToken",
              "type": "address"
            },
            {
              "internalType": "uint256",
              "name": "exchangeRateCurrent",
              "type": "uint256"
            },
            {
              "internalType": "uint256",
              "name": "supplyRatePerBlock",
              "type": "uint256"
            },
            {
              "internalType": "uint256",
              "name": "borrowRatePerBlock",
              "type": "uint256"
            },
            {
              "internalType": "uint256",
              "name": "reserveFactorMantissa",
              "type": "uint256"
            },
            {
              "internalType": "uint256",
              "name": "totalBorrows",
              "type": "uint256"
            },
            {
              "internalType": "uint256",
              "name": "totalReserves",
              "type": "uint256"
            },
            {
              "internalType": "uint256",
              "name": "totalSupply",
              "type": "uint256"
            },
            {
              "internalType": "uint256",
              "name": "totalCash",
              "type": "uint256"
            },
            {
              "internalType": "bool",
              "name": "isListed",
              "type": "bool"
            },
            {
              "internalType": "uint256",
              "name": "collateralFactorMantissa",
              "type": "uint256"
            },
            {
              "internalType": "address",
              "name": "underlyingAssetAddress",
              "type": "address"
            },
            {
              "internalType": "uint256",
              "name": "cTokenDecimals",
              "type": "uint256"
            },
            {
              "internalType": "uint256",
              "name": "underlyingDecimals",
              "type": "uint256"
            }
          ],
          "internalType": "struct CompoundLens.CTokenMetadata[]",
          "name": "",
          "type": "tuple[]"
        }
      ],
      "payable": false,
      "stateMutability": "nonpayable",
      "type": "function"
    },
    {
      "constant": false,
      "inputs": [
        {
          "internalType": "contract CToken",
          "name": "cToken",
          "type": "address"
        },
        {
          "internalType": "address payable",
          "name": "account",
          "type": "address"
        }
      ],
      "name": "cTokenBalances",
      "outputs": [
        {
          "components": [
            {
              "internalType": "address",
              "name": "cToken",
              "type": "address"
            },
            {
              "internalType": "uint256",
              "name": "balanceOf",
              "type": "uint256"
            },
            {
              "internalType": "uint256",
              "name": "borrowBalanceCurrent",
              "type": "uint256"
            },
            {
              "internalType": "uint256",
              "name": "balanceOfUnderlying",
              "type": "uint256"
            },
            {
              "internalType": "uint256",
              "name": "tokenBalance",
              "type": "uint256"
            },
            {
              "internalType": "uint256",
              "name": "tokenAllowance",
              "type": "uint256"
            }
          ],
          "internalType": "struct CompoundLens.CTokenBalances",
          "name": "",
          "type": "tuple"
        }
      ],
      "payable": false,
      "stateMutability": "nonpayable",
      "type": "function"
    },
    {
      "constant": false,
      "inputs": [
        {
          "internalType": "contract CToken[]",
          "name": "cTokens",
          "type": "address[]"
        },
        {
          "internalType": "address payable",
          "name": "account",
          "type": "address"
        }
      ],
      "name": "cTokenBalancesAll",
      "outputs": [
        {
          "components": [
            {
              "internalType": "address",
              "name": "cToken",
              "type": "address"
            },
            {
              "internalType": "uint256",
              "name": "balanceOf",
              "type": "uint256"
            },
            {
              "internalType": "uint256",
              "name": "borrowBalanceCurrent",
              "type": "uint256"
            },
            {
              "internalType": "uint256",
              "name": "balanceOfUnderlying",
              "type": "uint256"
            },
            {
              "internalType": "uint256",
              "name": "tokenBalance",
              "type": "uint256"
            },
            {
              "internalType": "uint256",
              "name": "tokenAllowance",
              "type": "uint256"
            }
          ],
          "internalType": "struct CompoundLens.CTokenBalances[]",
          "name": "",
          "type": "tuple[]"
        }
      ],
      "payable": false,
      "stateMutability": "nonpayable",
      "type": "function"
    },
    {
      "constant": false,
      "inputs": [
        {
          "internalType": "contract CToken",
          "name": "cToken",
          "type": "address"
        }
      ],
      "name": "cTokenUnderlyingPrice",
      "outputs": [
        {
          "components": [
            {
              "internalType": "address",
              "name": "cToken",
              "type": "address"
            },
            {
              "internalType": "uint256",
              "name": "underlyingPrice",
              "type": "uint256"
            }
          ],
          "internalType": "struct CompoundLens.CTokenUnderlyingPrice",
          "name": "",
          "type": "tuple"
        }
      ],
      "payable": false,
      "stateMutability": "nonpayable",
      "type": "function"
    },
    {
      "constant": false,
      "inputs": [
        {
          "internalType": "contract CToken[]",
          "name": "cTokens",
          "type": "address[]"
        }
      ],
      "name": "cTokenUnderlyingPriceAll",
      "outputs": [
        {
          "components": [
            {
              "internalType": "address",
              "name": "cToken",
              "type": "address"
            },
            {
              "internalType": "uint256",
              "name": "underlyingPrice",
              "type": "uint256"
            }
          ],
          "internalType": "struct CompoundLens.CTokenUnderlyingPrice[]",
          "name": "",
          "type": "tuple[]"
        }
      ],
      "payable": false,
      "stateMutability": "nonpayable",
      "type": "function"
    },
    {
      "constant": false,
      "inputs": [
        {
          "internalType": "contract ComptrollerLensInterface",
          "name": "comptroller",
          "type": "address"
        },
        {
          "internalType": "address",
          "name": "account",
          "type": "address"
        }
      ],
      "name": "getAccountLimits",
      "outputs": [
        {
          "components": [
            {
              "internalType": "contract CToken[]",
              "name": "markets",
              "type": "address[]"
            },
            {
              "internalType": "uint256",
              "name": "liquidity",
              "type": "uint256"
            },
            {
              "internalType": "uint256",
              "name": "shortfall",
              "type": "uint256"
            }
          ],
          "internalType": "struct CompoundLens.AccountLimits",
          "name": "",
          "type": "tuple"
        }
      ],
      "payable": false,
      "stateMutability": "nonpayable",
      "type": "function"
    },
    {
      "constant": true,
      "inputs": [
        {
          "internalType": "contract Comp",
          "name": "comp",
          "type": "address"
        },
        {
          "internalType": "address",
          "name": "account",
          "type": "address"
        }
      ],
      "name": "getCompBalanceMetadata",
      "outputs": [
        {
          "components": [
            {
              "internalType": "uint256",
              "name": "balance",
              "type": "uint256"
            },
            {
              "internalType": "uint256",
              "name": "votes",
              "type": "uint256"
            },
            {
              "internalType": "address",
              "name": "delegate",
              "type": "address"
            }
          ],
          "internalType": "struct CompoundLens.CompBalanceMetadata",
          "name": "",
          "type": "tuple"
        }
      ],
      "payable": false,
      "stateMutability": "view",
      "type": "function"
    },
    {
      "constant": false,
      "inputs": [
        {
          "internalType": "contract Comp",
          "name": "comp",
          "type": "address"
        },
        {
          "internalType": "contract ComptrollerLensInterface",
          "name": "comptroller",
          "type": "address"
        },
        {
          "internalType": "address",
          "name": "account",
          "type": "address"
        }
      ],
      "name": "getCompBalanceMetadataExt",
      "outputs": [
        {
          "components": [
            {
              "internalType": "uint256",
              "name": "balance",
              "type": "uint256"
            },
            {
              "internalType": "uint256",
              "name": "votes",
              "type": "uint256"
            },
            {
              "internalType": "address",
              "name": "delegate",
              "type": "address"
            },
            {
              "internalType": "uint256",
              "name": "allocated",
              "type": "uint256"
            }
          ],
          "internalType": "struct CompoundLens.CompBalanceMetadataExt",
          "name": "",
          "type": "tuple"
        }
      ],
      "payable": false,
      "stateMutability": "nonpayable",
      "type": "function"
    },
    {
      "constant": true,
      "inputs": [
        {
          "internalType": "contract Comp",
          "name": "comp",
          "type": "address"
        },
        {
          "internalType": "address",
          "name": "account",
          "type": "address"
        },
        {
          "internalType": "uint32[]",
          "name": "blockNumbers",
          "type": "uint32[]"
        }
      ],
      "name": "getCompVotes",
      "outputs": [
        {
          "components": [
            {
              "internalType": "uint256",
              "name": "blockNumber",
              "type": "uint256"
            },
            {
              "internalType": "uint256",
              "name": "votes",
              "type": "uint256"
            }
          ],
          "internalType": "struct CompoundLens.CompVotes[]",
          "name": "",
          "type": "tuple[]"
        }
      ],
      "payable": false,
      "stateMutability": "view",
      "type": "function"
    },
    {
      "constant": false,
      "inputs": [
        {
          "internalType": "contract CSLPInterface[]",
          "name": "cTokens",
          "type": "address[]"
        },
        {
          "internalType": "address",
          "name": "sushi",
          "type": "address"
        },
        {
          "internalType": "address",
          "name": "account",
          "type": "address"
        }
      ],
      "name": "getClaimableSushiRewards",
      "outputs": [
        {
          "internalType": "uint256[]",
          "name": "",
          "type": "uint256[]"
        }
      ],
      "payable": false,
      "stateMutability": "nonpayable",
      "type": "function"
    },
    {
      "constant": false,
      "inputs": [
        {
          "internalType": "contract CCTokenInterface[]",
          "name": "cTokens",
          "type": "address[]"
        },
        {
          "internalType": "address",
          "name": "comp",
          "type": "address"
        },
        {
          "internalType": "address",
          "name": "account",
          "type": "address"
        }
      ],
      "name": "getClaimableCompRewards",
      "outputs": [
        {
          "internalType": "uint256[]",
          "name": "",
          "type": "uint256[]"
        }
      ],
      "payable": false,
      "stateMutability": "nonpayable",
      "type": "function"
    }
  ],
  "bytecode": "0x608060405234801561001057600080fd5b50613e51806100206000396000f3fe608060405234801561001057600080fd5b50600436106100b45760003560e01c80634b70d84b116100715780634b70d84b146101d957806359564219146102095780637dd8f6d914610239578063bdf950c914610269578063c5ae593414610299578063da84fefe146102c9576100b4565b80630972bf8b146100b95780630e23cffd146100e9578063158eca8b146101195780631ea63741146101495780632b2d5ed614610179578063416405d7146101a9575b600080fd5b6100d360048036036100ce9190810190612a4b565b6102f9565b6040516100e09190613780565b60405180910390f35b61010360048036036100fe919081019061299a565b6103ab565b6040516101109190613808565b60405180910390f35b610133600480360361012e9190810190612b72565b610632565b60405161014091906138a4565b60405180910390f35b610163600480360361015e9190810190612c7f565b610eb0565b60405161017091906138db565b60405180910390f35b610193600480360361018e9190810190612a06565b6112b5565b6040516101a091906137c4565b60405180910390f35b6101c360048036036101be9190810190612bd7565b611365565b6040516101d091906138f6565b60405180910390f35b6101f360048036036101ee9190810190612a06565b61154c565b60405161020091906137a2565b60405180910390f35b610223600480360361021e9190810190612c13565b6115fc565b60405161023091906137e6565b60405180910390f35b610253600480360361024e9190810190612cf7565b611774565b6040516102609190613867565b60405180910390f35b610283600480360361027e9190810190612b9b565b6118d0565b6040516102909190613889565b60405180910390f35b6102b360048036036102ae9190810190612b72565b611d77565b6040516102c091906138c0565b60405180910390f35b6102e360048036036102de919081019061292e565b611f3f565b6040516102f09190613808565b60405180910390f35b6060600084849050905060608160405190808252806020026020018201604052801561033f57816020015b61032c6122d4565b8152602001906001900390816103245790505b50905060008090505b8281101561039e5761037a87878381811061035f57fe5b90506020020160206103749190810190612b72565b866118d0565b82828151811061038657fe5b60200260200101819052508080600101915050610348565b5080925050509392505050565b606060008585905090506060816040519080825280602002602001820160405280156103e65781602001602082028038833980820191505090505b50905060008090505b828110156106245760008673ffffffffffffffffffffffffffffffffffffffff166370a08231876040518263ffffffff1660e01b815260040161043291906136f8565b60206040518083038186803b15801561044a57600080fd5b505afa15801561045e573d6000803e3d6000fd5b505050506040513d601f19601f820116820180604052506104829190810190612d9d565b905088888381811061049057fe5b90506020020160206104a59190810190612b49565b73ffffffffffffffffffffffffffffffffffffffff16632781e0d5876040518263ffffffff1660e01b81526004016104dd91906136f8565b602060405180830381600087803b1580156104f757600080fd5b505af115801561050b573d6000803e3d6000fd5b505050506040513d601f19601f8201168201806040525061052f9190810190612d9d565b5060008773ffffffffffffffffffffffffffffffffffffffff166370a08231886040518263ffffffff1660e01b815260040161056b91906136f8565b60206040518083038186803b15801561058357600080fd5b505afa158015610597573d6000803e3d6000fd5b505050506040513d601f19601f820116820180604052506105bb9190810190612d9d565b90506105fd81836040518060400160405280601581526020017f7375627472616374696f6e20756e646572666c6f7700000000000000000000008152506121c6565b84848151811061060957fe5b602002602001018181525050505080806001019150506103ef565b508092505050949350505050565b61063a612320565b60008273ffffffffffffffffffffffffffffffffffffffff1663bd6d894d6040518163ffffffff1660e01b8152600401602060405180830381600087803b15801561068457600080fd5b505af1158015610698573d6000803e3d6000fd5b505050506040513d601f19601f820116820180604052506106bc9190810190612d9d565b905060008373ffffffffffffffffffffffffffffffffffffffff16635fe3b5676040518163ffffffff1660e01b815260040160206040518083038186803b15801561070657600080fd5b505afa15801561071a573d6000803e3d6000fd5b505050506040513d601f19601f8201168201806040525061073e9190810190612cce565b90506000808273ffffffffffffffffffffffffffffffffffffffff16638e8f294b876040518263ffffffff1660e01b815260040161077c91906136f8565b604080518083038186803b15801561079357600080fd5b505afa1580156107a7573d6000803e3d6000fd5b505050506040513d601f19601f820116820180604052506107cb9190810190612ae4565b915091506000806108938873ffffffffffffffffffffffffffffffffffffffff166395d89b416040518163ffffffff1660e01b815260040160006040518083038186803b15801561081b57600080fd5b505afa15801561082f573d6000803e3d6000fd5b505050506040513d6000823e3d601f19601f820116820180604052506108589190810190612d5c565b6040518060400160405280600581526020017f6372424e42000000000000000000000000000000000000000000000000000000815250612221565b156108a5576000915060129050610a2c565b60008890508073ffffffffffffffffffffffffffffffffffffffff16636f307dc36040518163ffffffff1660e01b815260040160206040518083038186803b1580156108f057600080fd5b505afa158015610904573d6000803e3d6000fd5b505050506040513d601f19601f820116820180604052506109289190810190612905565b92508073ffffffffffffffffffffffffffffffffffffffff16636f307dc36040518163ffffffff1660e01b815260040160206040518083038186803b15801561097057600080fd5b505afa158015610984573d6000803e3d6000fd5b505050506040513d601f19601f820116820180604052506109a89190810190612905565b73ffffffffffffffffffffffffffffffffffffffff1663313ce5676040518163ffffffff1660e01b815260040160206040518083038186803b1580156109ed57600080fd5b505afa158015610a01573d6000803e3d6000fd5b505050506040513d601f19601f82011682018060405250610a259190810190612e3e565b60ff169150505b604051806101c001604052808973ffffffffffffffffffffffffffffffffffffffff1681526020018781526020018973ffffffffffffffffffffffffffffffffffffffff1663ae9d70b06040518163ffffffff1660e01b815260040160206040518083038186803b158015610aa057600080fd5b505afa158015610ab4573d6000803e3d6000fd5b505050506040513d601f19601f82011682018060405250610ad89190810190612d9d565b81526020018973ffffffffffffffffffffffffffffffffffffffff1663f8f9da286040518163ffffffff1660e01b815260040160206040518083038186803b158015610b2357600080fd5b505afa158015610b37573d6000803e3d6000fd5b505050506040513d601f19601f82011682018060405250610b5b9190810190612d9d565b81526020018973ffffffffffffffffffffffffffffffffffffffff1663173b99046040518163ffffffff1660e01b815260040160206040518083038186803b158015610ba657600080fd5b505afa158015610bba573d6000803e3d6000fd5b505050506040513d601f19601f82011682018060405250610bde9190810190612d9d565b81526020018973ffffffffffffffffffffffffffffffffffffffff166347bd37186040518163ffffffff1660e01b815260040160206040518083038186803b158015610c2957600080fd5b505afa158015610c3d573d6000803e3d6000fd5b505050506040513d601f19601f82011682018060405250610c619190810190612d9d565b81526020018973ffffffffffffffffffffffffffffffffffffffff16638f840ddd6040518163ffffffff1660e01b815260040160206040518083038186803b158015610cac57600080fd5b505afa158015610cc0573d6000803e3d6000fd5b505050506040513d601f19601f82011682018060405250610ce49190810190612d9d565b81526020018973ffffffffffffffffffffffffffffffffffffffff166318160ddd6040518163ffffffff1660e01b815260040160206040518083038186803b158015610d2f57600080fd5b505afa158015610d43573d6000803e3d6000fd5b505050506040513d601f19601f82011682018060405250610d679190810190612d9d565b81526020018973ffffffffffffffffffffffffffffffffffffffff16633b1d21a26040518163ffffffff1660e01b815260040160206040518083038186803b158015610db257600080fd5b505afa158015610dc6573d6000803e3d6000fd5b505050506040513d601f19601f82011682018060405250610dea9190810190612d9d565b815260200185151581526020018481526020018373ffffffffffffffffffffffffffffffffffffffff1681526020018973ffffffffffffffffffffffffffffffffffffffff1663313ce5676040518163ffffffff1660e01b815260040160206040518083038186803b158015610e5f57600080fd5b505afa158015610e73573d6000803e3d6000fd5b505050506040513d601f19601f82011682018060405250610e979190810190612e3e565b60ff168152602001828152509650505050505050919050565b610eb86123bd565b60008473ffffffffffffffffffffffffffffffffffffffff166370a08231846040518263ffffffff1660e01b8152600401610ef391906136f8565b60206040518083038186803b158015610f0b57600080fd5b505afa158015610f1f573d6000803e3d6000fd5b505050506040513d601f19601f82011682018060405250610f439190810190612d9d565b90508373ffffffffffffffffffffffffffffffffffffffff1663e9af0292846040518263ffffffff1660e01b8152600401610f7e91906136f8565b600060405180830381600087803b158015610f9857600080fd5b505af1158015610fac573d6000803e3d6000fd5b5050505060008573ffffffffffffffffffffffffffffffffffffffff166370a08231856040518263ffffffff1660e01b8152600401610feb91906136f8565b60206040518083038186803b15801561100357600080fd5b505afa158015611017573d6000803e3d6000fd5b505050506040513d601f19601f8201168201806040525061103b9190810190612d9d565b905060008573ffffffffffffffffffffffffffffffffffffffff1663cc7ebdc4866040518263ffffffff1660e01b815260040161107891906136f8565b60206040518083038186803b15801561109057600080fd5b505afa1580156110a4573d6000803e3d6000fd5b505050506040513d601f19601f820116820180604052506110c89190810190612d9d565b9050600061110c82846040518060400160405280600e81526020017f73756d20636f6d7020746f74616c00000000000000000000000000000000000081525061227a565b9050600061115082866040518060400160405280600d81526020017f73756220616c6c6f6361746564000000000000000000000000000000000000008152506121c6565b905060405180608001604052808681526020018a73ffffffffffffffffffffffffffffffffffffffff1663b4b5ea578a6040518263ffffffff1660e01b815260040161119c91906136f8565b60206040518083038186803b1580156111b457600080fd5b505afa1580156111c8573d6000803e3d6000fd5b505050506040513d601f19601f820116820180604052506111ec9190810190612e67565b6bffffffffffffffffffffffff1681526020018a73ffffffffffffffffffffffffffffffffffffffff1663587cde1e8a6040518263ffffffff1660e01b815260040161123891906136f8565b60206040518083038186803b15801561125057600080fd5b505afa158015611264573d6000803e3d6000fd5b505050506040513d601f19601f820116820180604052506112889190810190612905565b73ffffffffffffffffffffffffffffffffffffffff16815260200182815250955050505050509392505050565b606060008383905090506060816040519080825280602002602001820160405280156112fb57816020015b6112e86123fb565b8152602001906001900390816112e05790505b50905060008090505b828110156113595761133586868381811061131b57fe5b90506020020160206113309190810190612b72565b611d77565b82828151811061134157fe5b60200260200101819052508080600101915050611304565b50809250505092915050565b61136d61242b565b60405180606001604052808473ffffffffffffffffffffffffffffffffffffffff166370a08231856040518263ffffffff1660e01b81526004016113b191906136f8565b60206040518083038186803b1580156113c957600080fd5b505afa1580156113dd573d6000803e3d6000fd5b505050506040513d601f19601f820116820180604052506114019190810190612d9d565b81526020018473ffffffffffffffffffffffffffffffffffffffff1663b4b5ea57856040518263ffffffff1660e01b815260040161143f91906136f8565b60206040518083038186803b15801561145757600080fd5b505afa15801561146b573d6000803e3d6000fd5b505050506040513d601f19601f8201168201806040525061148f9190810190612e67565b6bffffffffffffffffffffffff1681526020018473ffffffffffffffffffffffffffffffffffffffff1663587cde1e856040518263ffffffff1660e01b81526004016114db91906136f8565b60206040518083038186803b1580156114f357600080fd5b505afa158015611507573d6000803e3d6000fd5b505050506040513d601f19601f8201168201806040525061152b9190810190612905565b73ffffffffffffffffffffffffffffffffffffffff16815250905092915050565b6060600083839050905060608160405190808252806020026020018201604052801561159257816020015b61157f612462565b8152602001906001900390816115775790505b50905060008090505b828110156115f0576115cc8686838181106115b257fe5b90506020020160206115c79190810190612b72565b610632565b8282815181106115d857fe5b6020026020010181905250808060010191505061159b565b50809250505092915050565b6060808383905060405190808252806020026020018201604052801561163c57816020015b6116296124ff565b8152602001906001900390816116215790505b50905060008090505b8484905081101561176757604051806040016040528086868481811061166757fe5b905060200201602061167c9190810190612e15565b63ffffffff1681526020018873ffffffffffffffffffffffffffffffffffffffff1663782d6fe1898989878181106116b057fe5b90506020020160206116c59190810190612e15565b6040518363ffffffff1660e01b81526004016116e2929190613757565b60206040518083038186803b1580156116fa57600080fd5b505afa15801561170e573d6000803e3d6000fd5b505050506040513d601f19601f820116820180604052506117329190810190612e67565b6bffffffffffffffffffffffff1681525082828151811061174f57fe5b60200260200101819052508080600101915050611645565b5080915050949350505050565b61177c612519565b60008060008573ffffffffffffffffffffffffffffffffffffffff16635ec88c79866040518263ffffffff1660e01b81526004016117ba91906136f8565b60606040518083038186803b1580156117d257600080fd5b505afa1580156117e6573d6000803e3d6000fd5b505050506040513d601f19601f8201168201806040525061180a9190810190612dc6565b9250925092506000831461181d57600080fd5b60405180606001604052808773ffffffffffffffffffffffffffffffffffffffff1663abfceffc886040518263ffffffff1660e01b815260040161186191906136f8565b60006040518083038186803b15801561187957600080fd5b505afa15801561188d573d6000803e3d6000fd5b505050506040513d6000823e3d601f19601f820116820180604052506118b69190810190612aa3565b815260200183815260200182815250935050505092915050565b6118d861253a565b60008373ffffffffffffffffffffffffffffffffffffffff166370a08231846040518263ffffffff1660e01b81526004016119139190613713565b60206040518083038186803b15801561192b57600080fd5b505afa15801561193f573d6000803e3d6000fd5b505050506040513d601f19601f820116820180604052506119639190810190612d9d565b905060008473ffffffffffffffffffffffffffffffffffffffff166317bfdfbc856040518263ffffffff1660e01b81526004016119a09190613713565b602060405180830381600087803b1580156119ba57600080fd5b505af11580156119ce573d6000803e3d6000fd5b505050506040513d601f19601f820116820180604052506119f29190810190612d9d565b905060008573ffffffffffffffffffffffffffffffffffffffff16633af9e669866040518263ffffffff1660e01b8152600401611a2f9190613713565b602060405180830381600087803b158015611a4957600080fd5b505af1158015611a5d573d6000803e3d6000fd5b505050506040513d601f19601f82011682018060405250611a819190810190612d9d565b9050600080611b478873ffffffffffffffffffffffffffffffffffffffff166395d89b416040518163ffffffff1660e01b815260040160006040518083038186803b158015611acf57600080fd5b505afa158015611ae3573d6000803e3d6000fd5b505050506040513d6000823e3d601f19601f82011682018060405250611b0c9190810190612d5c565b6040518060400160405280600581526020017f6372424e42000000000000000000000000000000000000000000000000000000815250612221565b15611b85578673ffffffffffffffffffffffffffffffffffffffff163191508673ffffffffffffffffffffffffffffffffffffffff16319050611d27565b600088905060008173ffffffffffffffffffffffffffffffffffffffff16636f307dc36040518163ffffffff1660e01b815260040160206040518083038186803b158015611bd257600080fd5b505afa158015611be6573d6000803e3d6000fd5b505050506040513d601f19601f82011682018060405250611c0a9190810190612905565b90508073ffffffffffffffffffffffffffffffffffffffff166370a082318a6040518263ffffffff1660e01b8152600401611c459190613713565b60206040518083038186803b158015611c5d57600080fd5b505afa158015611c71573d6000803e3d6000fd5b505050506040513d601f19601f82011682018060405250611c959190810190612d9d565b93508073ffffffffffffffffffffffffffffffffffffffff1663dd62ed3e8a8c6040518363ffffffff1660e01b8152600401611cd292919061372e565b60206040518083038186803b158015611cea57600080fd5b505afa158015611cfe573d6000803e3d6000fd5b505050506040513d601f19601f82011682018060405250611d229190810190612d9d565b925050505b6040518060c001604052808973ffffffffffffffffffffffffffffffffffffffff168152602001868152602001858152602001848152602001838152602001828152509550505050505092915050565b611d7f612586565b60008273ffffffffffffffffffffffffffffffffffffffff16635fe3b5676040518163ffffffff1660e01b815260040160206040518083038186803b158015611dc757600080fd5b505afa158015611ddb573d6000803e3d6000fd5b505050506040513d601f19601f82011682018060405250611dff9190810190612cce565b905060008173ffffffffffffffffffffffffffffffffffffffff16637dc0d1d06040518163ffffffff1660e01b815260040160206040518083038186803b158015611e4957600080fd5b505afa158015611e5d573d6000803e3d6000fd5b505050506040513d601f19601f82011682018060405250611e819190810190612d33565b905060405180604001604052808573ffffffffffffffffffffffffffffffffffffffff1681526020018273ffffffffffffffffffffffffffffffffffffffff1663fc57d4df876040518263ffffffff1660e01b8152600401611ee3919061382a565b60206040518083038186803b158015611efb57600080fd5b505afa158015611f0f573d6000803e3d6000fd5b505050506040513d601f19601f82011682018060405250611f339190810190612d9d565b81525092505050919050565b60606000858590509050606081604051908082528060200260200182016040528015611f7a5781602001602082028038833980820191505090505b50905060008090505b828110156121b85760008673ffffffffffffffffffffffffffffffffffffffff166370a08231876040518263ffffffff1660e01b8152600401611fc691906136f8565b60206040518083038186803b158015611fde57600080fd5b505afa158015611ff2573d6000803e3d6000fd5b505050506040513d601f19601f820116820180604052506120169190810190612d9d565b905088888381811061202457fe5b90506020020160206120399190810190612b20565b73ffffffffffffffffffffffffffffffffffffffff1663e9af0292876040518263ffffffff1660e01b815260040161207191906136f8565b602060405180830381600087803b15801561208b57600080fd5b505af115801561209f573d6000803e3d6000fd5b505050506040513d601f19601f820116820180604052506120c39190810190612d9d565b5060008773ffffffffffffffffffffffffffffffffffffffff166370a08231886040518263ffffffff1660e01b81526004016120ff91906136f8565b60206040518083038186803b15801561211757600080fd5b505afa15801561212b573d6000803e3d6000fd5b505050506040513d601f19601f8201168201806040525061214f9190810190612d9d565b905061219181836040518060400160405280601581526020017f7375627472616374696f6e20756e646572666c6f7700000000000000000000008152506121c6565b84848151811061219d57fe5b60200260200101818152505050508080600101915050611f83565b508092505050949350505050565b600083831115829061220e576040517f08c379a00000000000000000000000000000000000000000000000000000000081526004016122059190613845565b60405180910390fd5b5060008385039050809150509392505050565b60008160405160200161223491906136e1565b604051602081830303815290604052805190602001208360405160200161225b91906136e1565b6040516020818303038152906040528051906020012014905092915050565b60008083850190508481101583906122c8576040517f08c379a00000000000000000000000000000000000000000000000000000000081526004016122bf9190613845565b60405180910390fd5b50809150509392505050565b6040518060c00160405280600073ffffffffffffffffffffffffffffffffffffffff16815260200160008152602001600081526020016000815260200160008152602001600081525090565b604051806101c00160405280600073ffffffffffffffffffffffffffffffffffffffff168152602001600081526020016000815260200160008152602001600081526020016000815260200160008152602001600081526020016000815260200160001515815260200160008152602001600073ffffffffffffffffffffffffffffffffffffffff16815260200160008152602001600081525090565b60405180608001604052806000815260200160008152602001600073ffffffffffffffffffffffffffffffffffffffff168152602001600081525090565b6040518060400160405280600073ffffffffffffffffffffffffffffffffffffffff168152602001600081525090565b60405180606001604052806000815260200160008152602001600073ffffffffffffffffffffffffffffffffffffffff1681525090565b604051806101c00160405280600073ffffffffffffffffffffffffffffffffffffffff168152602001600081526020016000815260200160008152602001600081526020016000815260200160008152602001600081526020016000815260200160001515815260200160008152602001600073ffffffffffffffffffffffffffffffffffffffff16815260200160008152602001600081525090565b604051806040016040528060008152602001600081525090565b60405180606001604052806060815260200160008152602001600081525090565b6040518060c00160405280600073ffffffffffffffffffffffffffffffffffffffff16815260200160008152602001600081526020016000815260200160008152602001600081525090565b6040518060400160405280600073ffffffffffffffffffffffffffffffffffffffff168152602001600081525090565b6000813590506125c581613ccc565b92915050565b6000815190506125da81613ccc565b92915050565b6000813590506125ef81613ce3565b92915050565b60008083601f84011261260757600080fd5b8235905067ffffffffffffffff81111561262057600080fd5b60208301915083602082028301111561263857600080fd5b9250929050565b60008083601f84011261265157600080fd5b8235905067ffffffffffffffff81111561266a57600080fd5b60208301915083602082028301111561268257600080fd5b9250929050565b60008083601f84011261269b57600080fd5b8235905067ffffffffffffffff8111156126b457600080fd5b6020830191508360208202830111156126cc57600080fd5b9250929050565b600082601f8301126126e457600080fd5b81516126f76126f28261393e565b613911565b9150818183526020840193506020810190508385602084028201111561271c57600080fd5b60005b8381101561274c578161273288826127f4565b84526020840193506020830192505060018101905061271f565b5050505092915050565b60008083601f84011261276857600080fd5b8235905067ffffffffffffffff81111561278157600080fd5b60208301915083602082028301111561279957600080fd5b9250929050565b6000815190506127af81613cfa565b92915050565b6000813590506127c481613d11565b92915050565b6000813590506127d981613d28565b92915050565b6000813590506127ee81613d3f565b92915050565b60008151905061280381613d3f565b92915050565b60008135905061281881613d56565b92915050565b60008151905061282d81613d6d565b92915050565b60008135905061284281613d84565b92915050565b60008151905061285781613d9b565b92915050565b600082601f83011261286e57600080fd5b815161288161287c82613966565b613911565b9150808252602083016020830185838301111561289d57600080fd5b6128a8838284613c88565b50505092915050565b6000815190506128c081613db2565b92915050565b6000813590506128d581613dc9565b92915050565b6000815190506128ea81613de0565b92915050565b6000815190506128ff81613df7565b92915050565b60006020828403121561291757600080fd5b6000612925848285016125cb565b91505092915050565b6000806000806060858703121561294457600080fd5b600085013567ffffffffffffffff81111561295e57600080fd5b61296a878288016125f5565b9450945050602061297d878288016125b6565b925050604061298e878288016125b6565b91505092959194509250565b600080600080606085870312156129b057600080fd5b600085013567ffffffffffffffff8111156129ca57600080fd5b6129d68782880161263f565b945094505060206129e9878288016125b6565b92505060406129fa878288016125b6565b91505092959194509250565b60008060208385031215612a1957600080fd5b600083013567ffffffffffffffff811115612a3357600080fd5b612a3f85828601612689565b92509250509250929050565b600080600060408486031215612a6057600080fd5b600084013567ffffffffffffffff811115612a7a57600080fd5b612a8686828701612689565b93509350506020612a99868287016125e0565b9150509250925092565b600060208284031215612ab557600080fd5b600082015167ffffffffffffffff811115612acf57600080fd5b612adb848285016126d3565b91505092915050565b60008060408385031215612af757600080fd5b6000612b05858286016127a0565b9250506020612b16858286016128b1565b9150509250929050565b600060208284031215612b3257600080fd5b6000612b40848285016127b5565b91505092915050565b600060208284031215612b5b57600080fd5b6000612b69848285016127ca565b91505092915050565b600060208284031215612b8457600080fd5b6000612b92848285016127df565b91505092915050565b60008060408385031215612bae57600080fd5b6000612bbc858286016127df565b9250506020612bcd858286016125e0565b9150509250929050565b60008060408385031215612bea57600080fd5b6000612bf885828601612809565b9250506020612c09858286016125b6565b9150509250929050565b60008060008060608587031215612c2957600080fd5b6000612c3787828801612809565b9450506020612c48878288016125b6565b935050604085013567ffffffffffffffff811115612c6557600080fd5b612c7187828801612756565b925092505092959194509250565b600080600060608486031215612c9457600080fd5b6000612ca286828701612809565b9350506020612cb386828701612833565b9250506040612cc4868287016125b6565b9150509250925092565b600060208284031215612ce057600080fd5b6000612cee8482850161281e565b91505092915050565b60008060408385031215612d0a57600080fd5b6000612d1885828601612833565b9250506020612d29858286016125b6565b9150509250929050565b600060208284031215612d4557600080fd5b6000612d5384828501612848565b91505092915050565b600060208284031215612d6e57600080fd5b600082015167ffffffffffffffff811115612d8857600080fd5b612d948482850161285d565b91505092915050565b600060208284031215612daf57600080fd5b6000612dbd848285016128b1565b91505092915050565b600080600060608486031215612ddb57600080fd5b6000612de9868287016128b1565b9350506020612dfa868287016128b1565b9250506040612e0b868287016128b1565b9150509250925092565b600060208284031215612e2757600080fd5b6000612e35848285016128c6565b91505092915050565b600060208284031215612e5057600080fd5b6000612e5e848285016128db565b91505092915050565b600060208284031215612e7957600080fd5b6000612e87848285016128f0565b91505092915050565b6000612e9c8383613191565b60208301905092915050565b6000612eb483836132e4565b60c08301905092915050565b6000612ecc838361347f565b6101c08301905092915050565b6000612ee583836135ce565b60408301905092915050565b6000612efd8383613694565b60408301905092915050565b6000612f1583836136c3565b60208301905092915050565b612f2a81613c1c565b82525050565b612f3981613b0f565b82525050565b612f4881613b0f565b82525050565b6000612f59826139f2565b612f638185613a8d565b9350612f6e83613992565b8060005b83811015612f9f578151612f868882612e90565b9750612f9183613a3f565b925050600181019050612f72565b5085935050505092915050565b6000612fb7826139fd565b612fc18185613a9e565b9350612fcc836139a2565b8060005b83811015612ffd578151612fe48882612ea8565b9750612fef83613a4c565b925050600181019050612fd0565b5085935050505092915050565b600061301582613a08565b61301f8185613aaf565b935061302a836139b2565b8060005b8381101561305b5781516130428882612ec0565b975061304d83613a59565b92505060018101905061302e565b5085935050505092915050565b600061307382613a13565b61307d8185613ac0565b9350613088836139c2565b8060005b838110156130b95781516130a08882612ed9565b97506130ab83613a66565b92505060018101905061308c565b5085935050505092915050565b60006130d182613a1e565b6130db8185613ad1565b93506130e6836139d2565b8060005b838110156131175781516130fe8882612ef1565b975061310983613a73565b9250506001810190506130ea565b5085935050505092915050565b600061312f82613a29565b6131398185613ae2565b9350613144836139e2565b8060005b8381101561317557815161315c8882612f09565b975061316783613a80565b925050600181019050613148565b5085935050505092915050565b61318b81613b33565b82525050565b61319a81613c2e565b82525050565b6131a981613c2e565b82525050565b60006131ba82613a34565b6131c48185613af3565b93506131d4818560208601613c88565b6131dd81613cbb565b840191505092915050565b60006131f382613a34565b6131fd8185613b04565b935061320d818560208601613c88565b80840191505092915050565b600060608301600083015184820360008601526132368282612f4e565b915050602083015161324b60208601826136c3565b50604083015161325e60408601826136c3565b508091505092915050565b60c08201600082015161327f6000850182612f30565b50602082015161329260208501826136c3565b5060408201516132a560408501826136c3565b5060608201516132b860608501826136c3565b5060808201516132cb60808501826136c3565b5060a08201516132de60a08501826136c3565b50505050565b60c0820160008201516132fa6000850182612f30565b50602082015161330d60208501826136c3565b50604082015161332060408501826136c3565b50606082015161333360608501826136c3565b50608082015161334660808501826136c3565b5060a082015161335960a08501826136c3565b50505050565b6101c0820160008201516133766000850182612f30565b50602082015161338960208501826136c3565b50604082015161339c60408501826136c3565b5060608201516133af60608501826136c3565b5060808201516133c260808501826136c3565b5060a08201516133d560a08501826136c3565b5060c08201516133e860c08501826136c3565b5060e08201516133fb60e08501826136c3565b506101008201516134106101008501826136c3565b50610120820151613425610120850182613182565b5061014082015161343a6101408501826136c3565b5061016082015161344f610160850182612f30565b506101808201516134646101808501826136c3565b506101a08201516134796101a08501826136c3565b50505050565b6101c0820160008201516134966000850182612f30565b5060208201516134a960208501826136c3565b5060408201516134bc60408501826136c3565b5060608201516134cf60608501826136c3565b5060808201516134e260808501826136c3565b5060a08201516134f560a08501826136c3565b5060c082015161350860c08501826136c3565b5060e082015161351b60e08501826136c3565b506101008201516135306101008501826136c3565b50610120820151613545610120850182613182565b5061014082015161355a6101408501826136c3565b5061016082015161356f610160850182612f30565b506101808201516135846101808501826136c3565b506101a08201516135996101a08501826136c3565b50505050565b6040820160008201516135b56000850182612f30565b5060208201516135c860208501826136c3565b50505050565b6040820160008201516135e46000850182612f30565b5060208201516135f760208501826136c3565b50505050565b60808201600082015161361360008501826136c3565b50602082015161362660208501826136c3565b5060408201516136396040850182612f30565b50606082015161364c60608501826136c3565b50505050565b60608201600082015161366860008501826136c3565b50602082015161367b60208501826136c3565b50604082015161368e6040850182612f30565b50505050565b6040820160008201516136aa60008501826136c3565b5060208201516136bd60208501826136c3565b50505050565b6136cc81613bdd565b82525050565b6136db81613c76565b82525050565b60006136ed82846131e8565b915081905092915050565b600060208201905061370d6000830184612f3f565b92915050565b60006020820190506137286000830184612f21565b92915050565b60006040820190506137436000830185612f21565b6137506020830184612f3f565b9392505050565b600060408201905061376c6000830185612f3f565b61377960208301846136d2565b9392505050565b6000602082019050818103600083015261379a8184612fac565b905092915050565b600060208201905081810360008301526137bc818461300a565b905092915050565b600060208201905081810360008301526137de8184613068565b905092915050565b6000602082019050818103600083015261380081846130c6565b905092915050565b600060208201905081810360008301526138228184613124565b905092915050565b600060208201905061383f60008301846131a0565b92915050565b6000602082019050818103600083015261385f81846131af565b905092915050565b600060208201905081810360008301526138818184613219565b905092915050565b600060c08201905061389e6000830184613269565b92915050565b60006101c0820190506138ba600083018461335f565b92915050565b60006040820190506138d5600083018461359f565b92915050565b60006080820190506138f060008301846135fd565b92915050565b600060608201905061390b6000830184613652565b92915050565b6000604051905081810181811067ffffffffffffffff8211171561393457600080fd5b8060405250919050565b600067ffffffffffffffff82111561395557600080fd5b602082029050602081019050919050565b600067ffffffffffffffff82111561397d57600080fd5b601f19601f8301169050602081019050919050565b6000819050602082019050919050565b6000819050602082019050919050565b6000819050602082019050919050565b6000819050602082019050919050565b6000819050602082019050919050565b6000819050602082019050919050565b600081519050919050565b600081519050919050565b600081519050919050565b600081519050919050565b600081519050919050565b600081519050919050565b600081519050919050565b6000602082019050919050565b6000602082019050919050565b6000602082019050919050565b6000602082019050919050565b6000602082019050919050565b6000602082019050919050565b600082825260208201905092915050565b600082825260208201905092915050565b600082825260208201905092915050565b600082825260208201905092915050565b600082825260208201905092915050565b600082825260208201905092915050565b600082825260208201905092915050565b600081905092915050565b6000613b1a82613bbd565b9050919050565b6000613b2c82613bbd565b9050919050565b60008115159050919050565b6000613b4a82613b0f565b9050919050565b6000613b5c82613b0f565b9050919050565b6000613b6e82613b0f565b9050919050565b6000613b8082613b0f565b9050919050565b6000613b9282613b0f565b9050919050565b6000613ba482613b0f565b9050919050565b6000613bb682613b0f565b9050919050565b600073ffffffffffffffffffffffffffffffffffffffff82169050919050565b6000819050919050565b600063ffffffff82169050919050565b600060ff82169050919050565b60006bffffffffffffffffffffffff82169050919050565b6000613c2782613c52565b9050919050565b6000613c3982613c40565b9050919050565b6000613c4b82613bbd565b9050919050565b6000613c5d82613c64565b9050919050565b6000613c6f82613bbd565b9050919050565b6000613c8182613be7565b9050919050565b60005b83811015613ca6578082015181840152602081019050613c8b565b83811115613cb5576000848401525b50505050565b6000601f19601f8301169050919050565b613cd581613b0f565b8114613ce057600080fd5b50565b613cec81613b21565b8114613cf757600080fd5b50565b613d0381613b33565b8114613d0e57600080fd5b50565b613d1a81613b3f565b8114613d2557600080fd5b50565b613d3181613b51565b8114613d3c57600080fd5b50565b613d4881613b63565b8114613d5357600080fd5b50565b613d5f81613b75565b8114613d6a57600080fd5b50565b613d7681613b87565b8114613d8157600080fd5b50565b613d8d81613b99565b8114613d9857600080fd5b50565b613da481613bab565b8114613daf57600080fd5b50565b613dbb81613bdd565b8114613dc657600080fd5b50565b613dd281613be7565b8114613ddd57600080fd5b50565b613de981613bf7565b8114613df457600080fd5b50565b613e0081613c04565b8114613e0b57600080fd5b5056fea365627a7a72315820af00059af07d666b26ae0de7025a5e5ae9e85431b869eb88247bf487f881b0a46c6578706572696d656e74616cf564736f6c63430005100040",
  "source": "// SPDX-License-Identifier: GPL-3.0-only\npragma solidity ^0.5.16;\npragma experimental ABIEncoderV2;\n\nimport \"../CErc20.sol\";\nimport \"../CToken.sol\";\nimport \"../PriceOracle.sol\";\nimport \"../BEP20Interface.sol\";\nimport \"../Governance/Comp.sol\";\n\ninterface ComptrollerLensInterface {\n    function markets(address) external view returns (bool, uint);\n    function oracle() external view returns (PriceOracle);\n    function getAccountLiquidity(address) external view returns (uint, uint, uint);\n    function getAssetsIn(address) external view returns (CToken[] memory);\n    function claimComp(address) external;\n    function compAccrued(address) external view returns (uint);\n}\n\ninterface CSLPInterface {\n    function claimSushi(address) external returns (uint);\n}\n\ninterface CCTokenInterface {\n    function claimComp(address) external returns (uint);\n}\n\ncontract CompoundLens {\n    struct CTokenMetadata {\n        address cToken;\n        uint exchangeRateCurrent;\n        uint supplyRatePerBlock;\n        uint borrowRatePerBlock;\n        uint reserveFactorMantissa;\n        uint totalBorrows;\n        uint totalReserves;\n        uint totalSupply;\n        uint totalCash;\n        bool isListed;\n        uint collateralFactorMantissa;\n        address underlyingAssetAddress;\n        uint cTokenDecimals;\n        uint underlyingDecimals;\n    }\n\n    function cTokenMetadata(CToken cToken) public returns (CTokenMetadata memory) {\n        uint exchangeRateCurrent = cToken.exchangeRateCurrent();\n        ComptrollerLensInterface comptroller = ComptrollerLensInterface(address(cToken.comptroller()));\n        (bool isListed, uint collateralFactorMantissa) = comptroller.markets(address(cToken));\n        address underlyingAssetAddress;\n        uint underlyingDecimals;\n\n        if (compareStrings(cToken.symbol(), \"crBNB\")) {\n            underlyingAssetAddress = address(0);\n            underlyingDecimals = 18;\n        } else {\n            CErc20 cErc20 = CErc20(address(cToken));\n            underlyingAssetAddress = cErc20.underlying();\n            underlyingDecimals = BEP20Interface(cErc20.underlying()).decimals();\n        }\n\n        return CTokenMetadata({\n            cToken: address(cToken),\n            exchangeRateCurrent: exchangeRateCurrent,\n            supplyRatePerBlock: cToken.supplyRatePerBlock(),\n            borrowRatePerBlock: cToken.borrowRatePerBlock(),\n            reserveFactorMantissa: cToken.reserveFactorMantissa(),\n            totalBorrows: cToken.totalBorrows(),\n            totalReserves: cToken.totalReserves(),\n            totalSupply: cToken.totalSupply(),\n            totalCash: cToken.getCash(),\n            isListed: isListed,\n            collateralFactorMantissa: collateralFactorMantissa,\n            underlyingAssetAddress: underlyingAssetAddress,\n            cTokenDecimals: cToken.decimals(),\n            underlyingDecimals: underlyingDecimals\n        });\n    }\n\n    function cTokenMetadataAll(CToken[] calldata cTokens) external returns (CTokenMetadata[] memory) {\n        uint cTokenCount = cTokens.length;\n        CTokenMetadata[] memory res = new CTokenMetadata[](cTokenCount);\n        for (uint i = 0; i < cTokenCount; i++) {\n            res[i] = cTokenMetadata(cTokens[i]);\n        }\n        return res;\n    }\n\n    struct CTokenBalances {\n        address cToken;\n        uint balanceOf;\n        uint borrowBalanceCurrent;\n        uint balanceOfUnderlying;\n        uint tokenBalance;\n        uint tokenAllowance;\n    }\n\n    function cTokenBalances(CToken cToken, address payable account) public returns (CTokenBalances memory) {\n        uint balanceOf = cToken.balanceOf(account);\n        uint borrowBalanceCurrent = cToken.borrowBalanceCurrent(account);\n        uint balanceOfUnderlying = cToken.balanceOfUnderlying(account);\n        uint tokenBalance;\n        uint tokenAllowance;\n\n        if (compareStrings(cToken.symbol(), \"crBNB\")) {\n            tokenBalance = account.balance;\n            tokenAllowance = account.balance;\n        } else {\n            CErc20 cErc20 = CErc20(address(cToken));\n            BEP20Interface underlying = BEP20Interface(cErc20.underlying());\n            tokenBalance = underlying.balanceOf(account);\n            tokenAllowance = underlying.allowance(account, address(cToken));\n        }\n\n        return CTokenBalances({\n            cToken: address(cToken),\n            balanceOf: balanceOf,\n            borrowBalanceCurrent: borrowBalanceCurrent,\n            balanceOfUnderlying: balanceOfUnderlying,\n            tokenBalance: tokenBalance,\n            tokenAllowance: tokenAllowance\n        });\n    }\n\n    function cTokenBalancesAll(CToken[] calldata cTokens, address payable account) external returns (CTokenBalances[] memory) {\n        uint cTokenCount = cTokens.length;\n        CTokenBalances[] memory res = new CTokenBalances[](cTokenCount);\n        for (uint i = 0; i < cTokenCount; i++) {\n            res[i] = cTokenBalances(cTokens[i], account);\n        }\n        return res;\n    }\n\n    struct CTokenUnderlyingPrice {\n        address cToken;\n        uint underlyingPrice;\n    }\n\n    function cTokenUnderlyingPrice(CToken cToken) public returns (CTokenUnderlyingPrice memory) {\n        ComptrollerLensInterface comptroller = ComptrollerLensInterface(address(cToken.comptroller()));\n        PriceOracle priceOracle = comptroller.oracle();\n\n        return CTokenUnderlyingPrice({\n            cToken: address(cToken),\n            underlyingPrice: priceOracle.getUnderlyingPrice(cToken)\n        });\n    }\n\n    function cTokenUnderlyingPriceAll(CToken[] calldata cTokens) external returns (CTokenUnderlyingPrice[] memory) {\n        uint cTokenCount = cTokens.length;\n        CTokenUnderlyingPrice[] memory res = new CTokenUnderlyingPrice[](cTokenCount);\n        for (uint i = 0; i < cTokenCount; i++) {\n            res[i] = cTokenUnderlyingPrice(cTokens[i]);\n        }\n        return res;\n    }\n\n    struct AccountLimits {\n        CToken[] markets;\n        uint liquidity;\n        uint shortfall;\n    }\n\n    function getAccountLimits(ComptrollerLensInterface comptroller, address account) public returns (AccountLimits memory) {\n        (uint errorCode, uint liquidity, uint shortfall) = comptroller.getAccountLiquidity(account);\n        require(errorCode == 0);\n\n        return AccountLimits({\n            markets: comptroller.getAssetsIn(account),\n            liquidity: liquidity,\n            shortfall: shortfall\n        });\n    }\n\n    struct CompBalanceMetadata {\n        uint balance;\n        uint votes;\n        address delegate;\n    }\n\n    function getCompBalanceMetadata(Comp comp, address account) external view returns (CompBalanceMetadata memory) {\n        return CompBalanceMetadata({\n            balance: comp.balanceOf(account),\n            votes: uint256(comp.getCurrentVotes(account)),\n            delegate: comp.delegates(account)\n        });\n    }\n\n    struct CompBalanceMetadataExt {\n        uint balance;\n        uint votes;\n        address delegate;\n        uint allocated;\n    }\n\n    function getCompBalanceMetadataExt(Comp comp, ComptrollerLensInterface comptroller, address account) external returns (CompBalanceMetadataExt memory) {\n        uint balance = comp.balanceOf(account);\n        comptroller.claimComp(account);\n        uint newBalance = comp.balanceOf(account);\n        uint accrued = comptroller.compAccrued(account);\n        uint total = add(accrued, newBalance, \"sum comp total\");\n        uint allocated = sub(total, balance, \"sub allocated\");\n\n        return CompBalanceMetadataExt({\n            balance: balance,\n            votes: uint256(comp.getCurrentVotes(account)),\n            delegate: comp.delegates(account),\n            allocated: allocated\n        });\n    }\n\n    struct CompVotes {\n        uint blockNumber;\n        uint votes;\n    }\n\n    function getCompVotes(Comp comp, address account, uint32[] calldata blockNumbers) external view returns (CompVotes[] memory) {\n        CompVotes[] memory res = new CompVotes[](blockNumbers.length);\n        for (uint i = 0; i < blockNumbers.length; i++) {\n            res[i] = CompVotes({\n                blockNumber: uint256(blockNumbers[i]),\n                votes: uint256(comp.getPriorVotes(account, blockNumbers[i]))\n            });\n        }\n        return res;\n    }\n\n    function getClaimableSushiRewards(CSLPInterface[] calldata cTokens, address sushi, address account) external returns (uint[] memory) {\n        uint cTokenCount = cTokens.length;\n        uint[] memory rewards = new uint[](cTokenCount);\n        for (uint i = 0; i < cTokenCount; i++) {\n            uint balanceBefore = BEP20Interface(sushi).balanceOf(account);\n            cTokens[i].claimSushi(account);\n            uint balanceAfter = BEP20Interface(sushi).balanceOf(account);\n            rewards[i] = sub(balanceAfter, balanceBefore, \"subtraction underflow\");\n        }\n        return rewards;\n    }\n\n    function getClaimableCompRewards(CCTokenInterface[] calldata cTokens, address comp, address account) external returns (uint[] memory) {\n        uint cTokenCount = cTokens.length;\n        uint[] memory rewards = new uint[](cTokenCount);\n        for (uint i = 0; i < cTokenCount; i++) {\n            uint balanceBefore = BEP20Interface(comp).balanceOf(account);\n            cTokens[i].claimComp(account);\n            uint balanceAfter = BEP20Interface(comp).balanceOf(account);\n            rewards[i] = sub(balanceAfter, balanceBefore, \"subtraction underflow\");\n        }\n        return rewards;\n    }\n\n    function compareStrings(string memory a, string memory b) internal pure returns (bool) {\n        return (keccak256(abi.encodePacked((a))) == keccak256(abi.encodePacked((b))));\n    }\n\n    function add(uint a, uint b, string memory errorMessage) internal pure returns (uint) {\n        uint c = a + b;\n        require(c >= a, errorMessage);\n        return c;\n    }\n\n    function sub(uint a, uint b, string memory errorMessage) internal pure returns (uint) {\n        require(b <= a, errorMessage);\n        uint c = a - b;\n        return c;\n    }\n}\n",
  "sourcePath": "/Users/junlin.gao/go/src/github.com/notion/pledge-protocol/contracts/Lens/CompoundLens.sol",
  "compiler": {
    "name": "solc",
    "version": "0.5.16+commit.9c3226ce.Emscripten.clang"
  },
  "schemaVersion": "3.3.4",
  "updatedAt": "2021-03-15T23:43:55.034Z",
  "devdoc": {
    "methods": {}
  },
  "userdoc": {
    "methods": {}
  }
}