{
  "contractName": "PriceOracleProxyBSC",
  "abi": [
    {
      "inputs": [
        {
          "internalType": "address",
          "name": "admin_",
          "type": "address"
        },
        {
          "internalType": "address",
          "name": "v1PriceOracle_",
          "type": "address"
        },
        {
          "internalType": "address",
          "name": "reference_",
          "type": "address"
        },
        {
          "internalType": "address",
          "name": "cBnbAddress_",
          "type": "address"
        }
      ],
      "payable": false,
      "stateMutability": "nonpayable",
      "type": "constructor"
    },
    {
      "constant": true,
      "inputs": [],
      "name": "QUOTE_SYMBOL",
      "outputs": [
        {
          "internalType": "string",
          "name": "",
          "type": "string"
        }
      ],
      "payable": false,
      "stateMutability": "view",
      "type": "function"
    },
    {
      "constant": true,
      "inputs": [],
      "name": "admin",
      "outputs": [
        {
          "internalType": "address",
          "name": "",
          "type": "address"
        }
      ],
      "payable": false,
      "stateMutability": "view",
      "type": "function"
    },
    {
      "constant": true,
      "inputs": [],
      "name": "cBnbAddress",
      "outputs": [
        {
          "internalType": "address",
          "name": "",
          "type": "address"
        }
      ],
      "payable": false,
      "stateMutability": "view",
      "type": "function"
    },
    {
      "constant": true,
      "inputs": [],
      "name": "isPriceOracle",
      "outputs": [
        {
          "internalType": "bool",
          "name": "",
          "type": "bool"
        }
      ],
      "payable": false,
      "stateMutability": "view",
      "type": "function"
    },
    {
      "constant": true,
      "inputs": [],
      "name": "ref",
      "outputs": [
        {
          "internalType": "contract IStdReference",
          "name": "",
          "type": "address"
        }
      ],
      "payable": false,
      "stateMutability": "view",
      "type": "function"
    },
    {
      "constant": true,
      "inputs": [
        {
          "internalType": "address",
          "name": "",
          "type": "address"
        }
      ],
      "name": "underlyingSymbols",
      "outputs": [
        {
          "internalType": "string",
          "name": "",
          "type": "string"
        }
      ],
      "payable": false,
      "stateMutability": "view",
      "type": "function"
    },
    {
      "constant": true,
      "inputs": [],
      "name": "v1PriceOracle",
      "outputs": [
        {
          "internalType": "contract V1PriceOracleInterface",
          "name": "",
          "type": "address"
        }
      ],
      "payable": false,
      "stateMutability": "view",
      "type": "function"
    },
    {
      "constant": true,
      "inputs": [
        {
          "internalType": "contract CToken",
          "name": "cToken",
          "type": "address"
        }
      ],
      "name": "getUnderlyingPrice",
      "outputs": [
        {
          "internalType": "uint256",
          "name": "",
          "type": "uint256"
        }
      ],
      "payable": false,
      "stateMutability": "view",
      "type": "function"
    },
    {
      "constant": false,
      "inputs": [
        {
          "internalType": "address",
          "name": "_admin",
          "type": "address"
        }
      ],
      "name": "_setAdmin",
      "outputs": [],
      "payable": false,
      "stateMutability": "nonpayable",
      "type": "function"
    },
    {
      "constant": false,
      "inputs": [
        {
          "internalType": "address[]",
          "name": "cTokenAddresses",
          "type": "address[]"
        },
        {
          "internalType": "string[]",
          "name": "symbols",
          "type": "string[]"
        }
      ],
      "name": "_setUnderlyingSymbols",
      "outputs": [],
      "payable": false,
      "stateMutability": "nonpayable",
      "type": "function"
    }
  ],
  "bytecode": "0x60806040523480156200001157600080fd5b50604051620017473803806200174783398181016040526200003791908101906200015b565b836000806101000a81548173ffffffffffffffffffffffffffffffffffffffff021916908373ffffffffffffffffffffffffffffffffffffffff16021790555082600160006101000a81548173ffffffffffffffffffffffffffffffffffffffff021916908373ffffffffffffffffffffffffffffffffffffffff16021790555081600260006101000a81548173ffffffffffffffffffffffffffffffffffffffff021916908373ffffffffffffffffffffffffffffffffffffffff16021790555080600460006101000a81548173ffffffffffffffffffffffffffffffffffffffff021916908373ffffffffffffffffffffffffffffffffffffffff1602179055505050505062000215565b6000815190506200015581620001fb565b92915050565b600080600080608085870312156200017257600080fd5b6000620001828782880162000144565b9450506020620001958782880162000144565b9350506040620001a88782880162000144565b9250506060620001bb8782880162000144565b91505092959194509250565b6000620001d482620001db565b9050919050565b600073ffffffffffffffffffffffffffffffffffffffff82169050919050565b6200020681620001c7565b81146200021257600080fd5b50565b61152280620002256000396000f3fe608060405234801561001057600080fd5b506004361061009e5760003560e01c80637f3baaf2116100665780637f3baaf21461013757806399f692ad14610167578063f851a44014610183578063fc57d4df146101a1578063fe10c98d146101d15761009e565b806321a78f68146100a35780633a74a767146100c157806345a41173146100dd578063488f7d03146100fb57806366331bba14610119575b600080fd5b6100ab6101ef565b6040516100b89190611226565b60405180910390f35b6100db60048036036100d69190810190610f01565b610215565b005b6100e56102e7565b6040516100f2919061125c565b60405180910390f35b610103610320565b60405161011091906111f0565b60405180910390f35b610121610346565b60405161012e919061120b565b60405180910390f35b610151600480360361014c9190810190610f01565b61034b565b60405161015e919061125c565b60405180910390f35b610181600480360361017c9190810190610f53565b6103fb565b005b61018b61057c565b60405161019891906111f0565b60405180910390f35b6101bb60048036036101b69190810190610fc8565b6105a1565b6040516101c891906112d5565b60405180910390f35b6101d96108b4565b6040516101e69190611241565b60405180910390f35b600260009054906101000a900473ffffffffffffffffffffffffffffffffffffffff1681565b6000809054906101000a900473ffffffffffffffffffffffffffffffffffffffff1673ffffffffffffffffffffffffffffffffffffffff163373ffffffffffffffffffffffffffffffffffffffff16146102a4576040517f08c379a000000000000000000000000000000000000000000000000000000000815260040161029b906112b5565b60405180910390fd5b806000806101000a81548173ffffffffffffffffffffffffffffffffffffffff021916908373ffffffffffffffffffffffffffffffffffffffff16021790555050565b6040518060400160405280600381526020017f424e42000000000000000000000000000000000000000000000000000000000081525081565b600460009054906101000a900473ffffffffffffffffffffffffffffffffffffffff1681565b600181565b60036020528060005260406000206000915090508054600181600116156101000203166002900480601f0160208091040260200160405190810160405280929190818152602001828054600181600116156101000203166002900480156103f35780601f106103c8576101008083540402835291602001916103f3565b820191906000526020600020905b8154815290600101906020018083116103d657829003601f168201915b505050505081565b6000809054906101000a900473ffffffffffffffffffffffffffffffffffffffff1673ffffffffffffffffffffffffffffffffffffffff163373ffffffffffffffffffffffffffffffffffffffff161461048a576040517f08c379a0000000000000000000000000000000000000000000000000000000008152600401610481906112b5565b60405180910390fd5b60008090505b84849050811015610575578282828181106104a757fe5b90506020028101803560016020038336030381126104c457600080fd5b8083019250508135905060208201915067ffffffffffffffff8111156104e957600080fd5b6001810236038213156104fb57600080fd5b6003600088888681811061050b57fe5b90506020020160206105209190810190610f01565b73ffffffffffffffffffffffffffffffffffffffff1673ffffffffffffffffffffffffffffffffffffffff1681526020019081526020016000209190610567929190610ccb565b508080600101915050610490565b5050505050565b6000809054906101000a900473ffffffffffffffffffffffffffffffffffffffff1681565b600080829050600460009054906101000a900473ffffffffffffffffffffffffffffffffffffffff1673ffffffffffffffffffffffffffffffffffffffff168173ffffffffffffffffffffffffffffffffffffffff16141561060e57670de0b6b3a76400009150506108af565b6060600360008373ffffffffffffffffffffffffffffffffffffffff1673ffffffffffffffffffffffffffffffffffffffff1681526020019081526020016000208054600181600116156101000203166002900480601f0160208091040260200160405190810160405280929190818152602001828054600181600116156101000203166002900480156106e35780601f106106b8576101008083540402835291602001916106e3565b820191906000526020600020905b8154815290600101906020018083116106c657829003601f168201915b5050505050905060008151146108a15760006106fd610d4b565b610706836108da565b80925081935050506000600281111561071b57fe5b82600281111561072757fe5b146107405761073584610ac4565b9450505050506108af565b6000808573ffffffffffffffffffffffffffffffffffffffff16636f307dc36040518163ffffffff1660e01b815260040160206040518083038186803b15801561078957600080fd5b505afa15801561079d573d6000803e3d6000fd5b505050506040513d601f19601f820116820180604052506107c19190810190610f2a565b73ffffffffffffffffffffffffffffffffffffffff1663313ce5676040518163ffffffff1660e01b815260040160206040518083038186803b15801561080657600080fd5b505afa15801561081a573d6000803e3d6000fd5b505050506040513d601f19601f8201168201806040525061083e9190810190611043565b60ff1690506108538382601203600a0a610bfa565b80945081935050506000600381111561086857fe5b82600381111561087457fe5b1461088f5761088286610ac4565b96505050505050506108af565b826000015196505050505050506108af565b6108aa82610ac4565b925050505b919050565b600160009054906101000a900473ffffffffffffffffffffffffffffffffffffffff1681565b60006108e4610d4b565b60006060600260009054906101000a900473ffffffffffffffffffffffffffffffffffffffff1673ffffffffffffffffffffffffffffffffffffffff16600260009054906101000a900473ffffffffffffffffffffffffffffffffffffffff1673ffffffffffffffffffffffffffffffffffffffff166365555bcc905060e01b866040518060400160405280600381526020017f424e4200000000000000000000000000000000000000000000000000000000008152506040516020016109ac92919061127e565b6040516020818303038152906040526040516020016109cc9291906111b1565b6040516020818303038152906040526040516109e891906111d9565b600060405180830381855afa9150503d8060008114610a23576040519150601f19603f3d011682016040523d82523d6000602084013e610a28565b606091505b50915091508115610aa357610a3b610d5e565b81806020019051610a4f9190810190610ff1565b9050600081600001511415610a7f5760016040518060200160405280600081525080905094509450505050610abf565b60006040518060200160405280836000015181525080905094509450505050610abf565b6002604051806020016040528060008152508090509350935050505b915091565b6000808273ffffffffffffffffffffffffffffffffffffffff16636f307dc36040518163ffffffff1660e01b815260040160206040518083038186803b158015610b0d57600080fd5b505afa158015610b21573d6000803e3d6000fd5b505050506040513d601f19601f82011682018060405250610b459190810190610f2a565b9050600160009054906101000a900473ffffffffffffffffffffffffffffffffffffffff1673ffffffffffffffffffffffffffffffffffffffff16635e9a523c826040518263ffffffff1660e01b8152600401610ba291906111f0565b60206040518083038186803b158015610bba57600080fd5b505afa158015610bce573d6000803e3d6000fd5b505050506040513d601f19601f82011682018060405250610bf2919081019061101a565b915050919050565b6000610c04610d4b565b600080610c15866000015186610c78565b9150915060006003811115610c2657fe5b826003811115610c3257fe5b14610c56578160405180602001604052806000815250809050935093505050610c71565b60006040518060200160405280838152508090509350935050505b9250929050565b6000806000841415610c935760008080905091509150610cc4565b6000838502905083858281610ca457fe5b0414610cbb57600260008090509250925050610cc4565b60008192509250505b9250929050565b828054600181600116156101000203166002900490600052602060002090601f016020900481019282601f10610d0c57803560ff1916838001178555610d3a565b82800160010185558215610d3a579182015b82811115610d39578235825591602001919060010190610d1e565b5b509050610d479190610d7f565b5090565b6040518060200160405280600081525090565b60405180606001604052806000815260200160008152602001600081525090565b610da191905b80821115610d9d576000816000905550600101610d85565b5090565b90565b600081359050610db381611483565b92915050565b600081519050610dc881611483565b92915050565b60008083601f840112610de057600080fd5b8235905067ffffffffffffffff811115610df957600080fd5b602083019150836020820283011115610e1157600080fd5b9250929050565b60008083601f840112610e2a57600080fd5b8235905067ffffffffffffffff811115610e4357600080fd5b602083019150836020820283011115610e5b57600080fd5b9250929050565b600081359050610e718161149a565b92915050565b600060608284031215610e8957600080fd5b610e9360606112f0565b90506000610ea384828501610ed7565b6000830152506020610eb784828501610ed7565b6020830152506040610ecb84828501610ed7565b60408301525092915050565b600081519050610ee6816114b1565b92915050565b600081519050610efb816114c8565b92915050565b600060208284031215610f1357600080fd5b6000610f2184828501610da4565b91505092915050565b600060208284031215610f3c57600080fd5b6000610f4a84828501610db9565b91505092915050565b60008060008060408587031215610f6957600080fd5b600085013567ffffffffffffffff811115610f8357600080fd5b610f8f87828801610dce565b9450945050602085013567ffffffffffffffff811115610fae57600080fd5b610fba87828801610e18565b925092505092959194509250565b600060208284031215610fda57600080fd5b6000610fe884828501610e62565b91505092915050565b60006060828403121561100357600080fd5b600061101184828501610e77565b91505092915050565b60006020828403121561102c57600080fd5b600061103a84828501610ed7565b91505092915050565b60006020828403121561105557600080fd5b600061106384828501610eec565b91505092915050565b6110758161135a565b82525050565b6110848161136c565b82525050565b61109b61109682611378565b611468565b82525050565b60006110ac8261131d565b6110b6818561133e565b93506110c6818560208601611435565b80840191505092915050565b6110db816113ed565b82525050565b6110ea81611411565b82525050565b60006110fb82611333565b6111058185611349565b9350611115818560208601611435565b61111e81611472565b840191505092915050565b600061113482611328565b61113e8185611349565b935061114e818560208601611435565b61115781611472565b840191505092915050565b600061116f600683611349565b91507f2161646d696e00000000000000000000000000000000000000000000000000006000830152602082019050919050565b6111ab816113d6565b82525050565b60006111bd828561108a565b6004820191506111cd82846110a1565b91508190509392505050565b60006111e582846110a1565b915081905092915050565b6000602082019050611205600083018461106c565b92915050565b6000602082019050611220600083018461107b565b92915050565b600060208201905061123b60008301846110d2565b92915050565b600060208201905061125660008301846110e1565b92915050565b600060208201905081810360008301526112768184611129565b905092915050565b6000604082019050818103600083015261129881856110f0565b905081810360208301526112ac8184611129565b90509392505050565b600060208201905081810360008301526112ce81611162565b9050919050565b60006020820190506112ea60008301846111a2565b92915050565b6000604051905081810181811067ffffffffffffffff8211171561131357600080fd5b8060405250919050565b600081519050919050565b600081519050919050565b600081519050919050565b600081905092915050565b600082825260208201905092915050565b6000611365826113b6565b9050919050565b60008115159050919050565b60007fffffffff0000000000000000000000000000000000000000000000000000000082169050919050565b60006113af8261135a565b9050919050565b600073ffffffffffffffffffffffffffffffffffffffff82169050919050565b6000819050919050565b600060ff82169050919050565b60006113f8826113ff565b9050919050565b600061140a826113b6565b9050919050565b600061141c82611423565b9050919050565b600061142e826113b6565b9050919050565b60005b83811015611453578082015181840152602081019050611438565b83811115611462576000848401525b50505050565b6000819050919050565b6000601f19601f8301169050919050565b61148c8161135a565b811461149757600080fd5b50565b6114a3816113a4565b81146114ae57600080fd5b50565b6114ba816113d6565b81146114c557600080fd5b50565b6114d1816113e0565b81146114dc57600080fd5b5056fea365627a7a723158207e024f364a40d6b71d849b048d80b31c91c7b45a16e4788caafcb404b9e2cd816c6578706572696d656e74616cf564736f6c63430005100040",
  "source": "// SPDX-License-Identifier: UNLICENSED\npragma solidity ^0.5.16;\npragma experimental ABIEncoderV2;\n\nimport \"./CErc20.sol\";\nimport \"./CToken.sol\";\nimport \"./PriceOracle.sol\";\nimport \"./Exponential.sol\";\nimport \"./BEP20Interface.sol\";\n\ninterface V1PriceOracleInterface {\n    function assetPrices(address asset) external view returns (uint);\n}\n\ninterface IStdReference {\n    /// A structure returned whenever someone requests for standard reference data.\n    struct ReferenceData {\n        uint256 rate; // base/quote exchange rate, multiplied by 1e18.\n        uint256 lastUpdatedBase; // UNIX epoch of the last time when base price gets updated.\n        uint256 lastUpdatedQuote; // UNIX epoch of the last time when quote price gets updated.\n    }\n\n    /// Returns the price data for the given base/quote pair. Revert if not available.\n    function getReferenceData(string calldata _base, string calldata _quote)\n        external\n        view\n        returns (ReferenceData memory);\n\n    /// Similar to getReferenceData, but with multiple base/quote pairs at once.\n    function getRefenceDataBulk(string[] calldata _bases, string[] calldata _quotes)\n        external\n        view\n        returns (ReferenceData[] memory);\n}\n\ncontract PriceOracleProxyBSC is PriceOracle, Exponential {\n    /**\n     * @dev Possible error codes that we can return for BAND oracle\n     */\n    enum OracleError {\n        NO_ERROR,\n        ERR_INVALID,\n        ERR_REVERTED\n    }\n\n    /// @notice Admin address that could set the underlying symbol of crTokens\n    address public admin;\n\n    /// @notice Indicator that this is a PriceOracle contract (for inspection)\n    bool public constant isPriceOracle = true;\n\n    /// @notice Quote symbol we used for BAND reference contract\n    string public constant QUOTE_SYMBOL = \"BNB\";\n\n    /// @notice The v1 price oracle, which will continue to serve prices for v1 assets\n    V1PriceOracleInterface public v1PriceOracle;\n\n    /// @notice The BAND oracle contract\n    IStdReference public ref;\n\n    /// @notice The mapping records the crToken and its underlying symbol that we use for BAND reference\n    ///         It's not necessarily equals to the symbol in the underlying contract\n    mapping(address => string) public underlyingSymbols;\n\n    /// @notice crBNB address that has a constant price of 1e18\n    address public cBnbAddress;\n\n    /**\n     * @param admin_ The address of admin to set underlying symbols for BAND oracle\n     * @param v1PriceOracle_ The address of the v1 price oracle, which will continue to operate and hold prices for collateral assets\n     * @param reference_ The price reference contract, which will be served for our primary price source on BSC\n     * @param cBnbAddress_ The address of cBNB, which will return a constant 1e18, since all prices relative to bnb\n     */\n    constructor(address admin_,\n                address v1PriceOracle_,\n                address reference_,\n                address cBnbAddress_) public {\n        admin = admin_;\n        v1PriceOracle = V1PriceOracleInterface(v1PriceOracle_);\n        ref = IStdReference(reference_);\n        cBnbAddress = cBnbAddress_;\n    }\n\n    /**\n     * @notice Get the underlying price of a listed cToken asset\n     * @param cToken The cToken to get the underlying price of\n     * @return The underlying asset price mantissa (scaled by 1e18)\n     */\n    function getUnderlyingPrice(CToken cToken) public view returns (uint) {\n        address cTokenAddress = address(cToken);\n\n        if (cTokenAddress == cBnbAddress) {\n            // bnb always worth 1\n            return 1e18;\n        }\n\n        bytes memory symbol = bytes(underlyingSymbols[cTokenAddress]);\n        if (symbol.length != 0) {\n            OracleError oracleErr;\n            Exp memory price;\n            (oracleErr, price) = getPriceFromBAND(string(symbol));\n            if (oracleErr != OracleError.NO_ERROR) {\n                // Fallback to v1 PriceOracle\n                return getPriceFromV1(cTokenAddress);\n            }\n\n            MathError mathErr;\n            uint underlyingDecimals;\n            underlyingDecimals = BEP20Interface(CErc20(cTokenAddress).underlying()).decimals();\n            (mathErr, price) = mulScalar(price, 10**(18 - underlyingDecimals));\n            if (mathErr != MathError.NO_ERROR) {\n                // Fallback to v1 PriceOracle\n                return getPriceFromV1(cTokenAddress);\n            }\n\n            return price.mantissa;\n        }\n\n        return getPriceFromV1(cTokenAddress);\n    }\n\n    function getPriceFromBAND(string memory symbol) internal view returns (OracleError, Exp memory) {\n        (bool success, bytes memory returnData) =\n            address(ref).staticcall(\n                abi.encodePacked(\n                    ref.getReferenceData.selector,\n                    abi.encode(symbol, QUOTE_SYMBOL)\n                )\n            );\n        if (success) {\n            IStdReference.ReferenceData memory data = abi.decode(returnData, (IStdReference.ReferenceData));\n            if (data.rate == 0) {\n                return (OracleError.ERR_INVALID, Exp({mantissa: 0}));\n            }\n            return (OracleError.NO_ERROR, Exp({mantissa: data.rate}));\n        }\n        return (OracleError.ERR_REVERTED, Exp({mantissa: 0}));\n    }\n\n    function getPriceFromV1(address cTokenAddress) internal view returns (uint) {\n        address underlying = CErc20(cTokenAddress).underlying();\n        return v1PriceOracle.assetPrices(underlying);\n    }\n\n    function _setAdmin(address _admin) external {\n        require(msg.sender == admin, \"!admin\");\n        admin = _admin;\n    }\n\n    function _setUnderlyingSymbols(address[] calldata cTokenAddresses, string[] calldata symbols) external {\n        require(msg.sender == admin, \"!admin\");\n        for (uint i = 0; i < cTokenAddresses.length; i++) {\n            underlyingSymbols[cTokenAddresses[i]] = symbols[i];\n        }\n    }\n}\n",
  "sourcePath": "/Users/junlin.gao/go/src/github.com/notion/pledge-protocol/contracts/PriceOracleProxyBSC.sol",
  "compiler": {
    "name": "solc",
    "version": "0.5.16+commit.9c3226ce.Emscripten.clang"
  },
  "schemaVersion": "3.3.4",
  "updatedAt": "2021-03-15T23:43:55.060Z",
  "devdoc": {
    "methods": {
      "constructor": {
        "params": {
          "admin_": "The address of admin to set underlying symbols for BAND oracle",
          "cBnbAddress_": "The address of cBNB, which will return a constant 1e18, since all prices relative to bnb",
          "reference_": "The price reference contract, which will be served for our primary price source on BSC",
          "v1PriceOracle_": "The address of the v1 price oracle, which will continue to operate and hold prices for collateral assets"
        }
      },
      "getUnderlyingPrice(address)": {
        "params": {
          "cToken": "The cToken to get the underlying price of"
        },
        "return": "The underlying asset price mantissa (scaled by 1e18)"
      }
    }
  },
  "userdoc": {
    "methods": {
      "getUnderlyingPrice(address)": {
        "notice": "Get the underlying price of a listed cToken asset"
      }
    }
  }
}