{
  "contractName": "Unitroller",
  "abi": [
    {
      "inputs": [],
      "payable": false,
      "stateMutability": "nonpayable",
      "type": "constructor"
    },
    {
      "anonymous": false,
      "inputs": [
        {
          "indexed": false,
          "internalType": "uint256",
          "name": "error",
          "type": "uint256"
        },
        {
          "indexed": false,
          "internalType": "uint256",
          "name": "info",
          "type": "uint256"
        },
        {
          "indexed": false,
          "internalType": "uint256",
          "name": "detail",
          "type": "uint256"
        }
      ],
      "name": "Failure",
      "type": "event"
    },
    {
      "anonymous": false,
      "inputs": [
        {
          "indexed": false,
          "internalType": "address",
          "name": "oldAdmin",
          "type": "address"
        },
        {
          "indexed": false,
          "internalType": "address",
          "name": "newAdmin",
          "type": "address"
        }
      ],
      "name": "NewAdmin",
      "type": "event"
    },
    {
      "anonymous": false,
      "inputs": [
        {
          "indexed": false,
          "internalType": "address",
          "name": "oldImplementation",
          "type": "address"
        },
        {
          "indexed": false,
          "internalType": "address",
          "name": "newImplementation",
          "type": "address"
        }
      ],
      "name": "NewImplementation",
      "type": "event"
    },
    {
      "anonymous": false,
      "inputs": [
        {
          "indexed": false,
          "internalType": "address",
          "name": "oldPendingAdmin",
          "type": "address"
        },
        {
          "indexed": false,
          "internalType": "address",
          "name": "newPendingAdmin",
          "type": "address"
        }
      ],
      "name": "NewPendingAdmin",
      "type": "event"
    },
    {
      "anonymous": false,
      "inputs": [
        {
          "indexed": false,
          "internalType": "address",
          "name": "oldPendingImplementation",
          "type": "address"
        },
        {
          "indexed": false,
          "internalType": "address",
          "name": "newPendingImplementation",
          "type": "address"
        }
      ],
      "name": "NewPendingImplementation",
      "type": "event"
    },
    {
      "constant": true,
      "inputs": [],
      "name": "admin",
      "outputs": [
        {
          "internalType": "address",
          "name": "",
          "type": "address"
        }
      ],
      "payable": false,
      "stateMutability": "view",
      "type": "function"
    },
    {
      "constant": true,
      "inputs": [],
      "name": "comptrollerImplementation",
      "outputs": [
        {
          "internalType": "address",
          "name": "",
          "type": "address"
        }
      ],
      "payable": false,
      "stateMutability": "view",
      "type": "function"
    },
    {
      "constant": true,
      "inputs": [],
      "name": "pendingAdmin",
      "outputs": [
        {
          "internalType": "address",
          "name": "",
          "type": "address"
        }
      ],
      "payable": false,
      "stateMutability": "view",
      "type": "function"
    },
    {
      "constant": true,
      "inputs": [],
      "name": "pendingComptrollerImplementation",
      "outputs": [
        {
          "internalType": "address",
          "name": "",
          "type": "address"
        }
      ],
      "payable": false,
      "stateMutability": "view",
      "type": "function"
    },
    {
      "constant": false,
      "inputs": [
        {
          "internalType": "address",
          "name": "newPendingImplementation",
          "type": "address"
        }
      ],
      "name": "_setPendingImplementation",
      "outputs": [
        {
          "internalType": "uint256",
          "name": "",
          "type": "uint256"
        }
      ],
      "payable": false,
      "stateMutability": "nonpayable",
      "type": "function"
    },
    {
      "constant": false,
      "inputs": [],
      "name": "_acceptImplementation",
      "outputs": [
        {
          "internalType": "uint256",
          "name": "",
          "type": "uint256"
        }
      ],
      "payable": false,
      "stateMutability": "nonpayable",
      "type": "function"
    },
    {
      "constant": false,
      "inputs": [
        {
          "internalType": "address",
          "name": "newPendingAdmin",
          "type": "address"
        }
      ],
      "name": "_setPendingAdmin",
      "outputs": [
        {
          "internalType": "uint256",
          "name": "",
          "type": "uint256"
        }
      ],
      "payable": false,
      "stateMutability": "nonpayable",
      "type": "function"
    },
    {
      "constant": false,
      "inputs": [],
      "name": "_acceptAdmin",
      "outputs": [
        {
          "internalType": "uint256",
          "name": "",
          "type": "uint256"
        }
      ],
      "payable": false,
      "stateMutability": "nonpayable",
      "type": "function"
    }
  ],
  "bytecode": "0x608060405234801561001057600080fd5b50336000806101000a81548173ffffffffffffffffffffffffffffffffffffffff021916908373ffffffffffffffffffffffffffffffffffffffff160217905550610d57806100606000396000f3fe608060405234801561001057600080fd5b50600436106100885760003560e01c8063dcfbc0c71161005b578063dcfbc0c714610197578063e992a041146101e1578063e9c714f214610239578063f851a4401461025757610088565b8063267822471461008d578063b71d1a0c146100d7578063bb82aa5e1461012f578063c1e8033414610179575b600080fd5b6100956102a1565b604051808273ffffffffffffffffffffffffffffffffffffffff1673ffffffffffffffffffffffffffffffffffffffff16815260200191505060405180910390f35b610119600480360360208110156100ed57600080fd5b81019080803573ffffffffffffffffffffffffffffffffffffffff1690602001909291905050506102c7565b6040518082815260200191505060405180910390f35b610137610445565b604051808273ffffffffffffffffffffffffffffffffffffffff1673ffffffffffffffffffffffffffffffffffffffff16815260200191505060405180910390f35b61018161046b565b6040518082815260200191505060405180910390f35b61019f6107a9565b604051808273ffffffffffffffffffffffffffffffffffffffff1673ffffffffffffffffffffffffffffffffffffffff16815260200191505060405180910390f35b610223600480360360208110156101f757600080fd5b81019080803573ffffffffffffffffffffffffffffffffffffffff1690602001909291905050506107cf565b6040518082815260200191505060405180910390f35b61024161096f565b6040518082815260200191505060405180910390f35b61025f610c89565b604051808273ffffffffffffffffffffffffffffffffffffffff1673ffffffffffffffffffffffffffffffffffffffff16815260200191505060405180910390f35b600160009054906101000a900473ffffffffffffffffffffffffffffffffffffffff1681565b60008060009054906101000a900473ffffffffffffffffffffffffffffffffffffffff1673ffffffffffffffffffffffffffffffffffffffff163373ffffffffffffffffffffffffffffffffffffffff1614610330576103296001600e610cae565b9050610440565b6000600160009054906101000a900473ffffffffffffffffffffffffffffffffffffffff16905082600160006101000a81548173ffffffffffffffffffffffffffffffffffffffff021916908373ffffffffffffffffffffffffffffffffffffffff1602179055507fca4f2f25d0898edd99413412fb94012f9e54ec8142f9b093e7720646a95b16a98184604051808373ffffffffffffffffffffffffffffffffffffffff1673ffffffffffffffffffffffffffffffffffffffff1681526020018273ffffffffffffffffffffffffffffffffffffffff1673ffffffffffffffffffffffffffffffffffffffff1681526020019250505060405180910390a16000601181111561043c57fe5b9150505b919050565b600260009054906101000a900473ffffffffffffffffffffffffffffffffffffffff1681565b6000600360009054906101000a900473ffffffffffffffffffffffffffffffffffffffff1673ffffffffffffffffffffffffffffffffffffffff163373ffffffffffffffffffffffffffffffffffffffff161415806105185750600073ffffffffffffffffffffffffffffffffffffffff16600360009054906101000a900473ffffffffffffffffffffffffffffffffffffffff1673ffffffffffffffffffffffffffffffffffffffff16145b1561052f57610528600180610cae565b90506107a6565b6000600260009054906101000a900473ffffffffffffffffffffffffffffffffffffffff1690506000600360009054906101000a900473ffffffffffffffffffffffffffffffffffffffff169050600360009054906101000a900473ffffffffffffffffffffffffffffffffffffffff16600260006101000a81548173ffffffffffffffffffffffffffffffffffffffff021916908373ffffffffffffffffffffffffffffffffffffffff1602179055506000600360006101000a81548173ffffffffffffffffffffffffffffffffffffffff021916908373ffffffffffffffffffffffffffffffffffffffff1602179055507fd604de94d45953f9138079ec1b82d533cb2160c906d1076d1f7ed54befbca97a82600260009054906101000a900473ffffffffffffffffffffffffffffffffffffffff16604051808373ffffffffffffffffffffffffffffffffffffffff1673ffffffffffffffffffffffffffffffffffffffff1681526020018273ffffffffffffffffffffffffffffffffffffffff1673ffffffffffffffffffffffffffffffffffffffff1681526020019250505060405180910390a17fe945ccee5d701fc83f9b8aa8ca94ea4219ec1fcbd4f4cab4f0ea57c5c3e1d81581600360009054906101000a900473ffffffffffffffffffffffffffffffffffffffff16604051808373ffffffffffffffffffffffffffffffffffffffff1673ffffffffffffffffffffffffffffffffffffffff1681526020018273ffffffffffffffffffffffffffffffffffffffff1673ffffffffffffffffffffffffffffffffffffffff1681526020019250505060405180910390a1600060118111156107a157fe5b925050505b90565b600360009054906101000a900473ffffffffffffffffffffffffffffffffffffffff1681565b60008060009054906101000a900473ffffffffffffffffffffffffffffffffffffffff1673ffffffffffffffffffffffffffffffffffffffff163373ffffffffffffffffffffffffffffffffffffffff1614610838576108316001600f610cae565b905061096a565b6000600360009054906101000a900473ffffffffffffffffffffffffffffffffffffffff16905082600360006101000a81548173ffffffffffffffffffffffffffffffffffffffff021916908373ffffffffffffffffffffffffffffffffffffffff1602179055507fe945ccee5d701fc83f9b8aa8ca94ea4219ec1fcbd4f4cab4f0ea57c5c3e1d81581600360009054906101000a900473ffffffffffffffffffffffffffffffffffffffff16604051808373ffffffffffffffffffffffffffffffffffffffff1673ffffffffffffffffffffffffffffffffffffffff1681526020018273ffffffffffffffffffffffffffffffffffffffff1673ffffffffffffffffffffffffffffffffffffffff1681526020019250505060405180910390a16000601181111561096657fe5b9150505b919050565b6000600160009054906101000a900473ffffffffffffffffffffffffffffffffffffffff1673ffffffffffffffffffffffffffffffffffffffff163373ffffffffffffffffffffffffffffffffffffffff161415806109fa5750600073ffffffffffffffffffffffffffffffffffffffff163373ffffffffffffffffffffffffffffffffffffffff16145b15610a1257610a0b60016000610cae565b9050610c86565b60008060009054906101000a900473ffffffffffffffffffffffffffffffffffffffff1690506000600160009054906101000a900473ffffffffffffffffffffffffffffffffffffffff169050600160009054906101000a900473ffffffffffffffffffffffffffffffffffffffff166000806101000a81548173ffffffffffffffffffffffffffffffffffffffff021916908373ffffffffffffffffffffffffffffffffffffffff1602179055506000600160006101000a81548173ffffffffffffffffffffffffffffffffffffffff021916908373ffffffffffffffffffffffffffffffffffffffff1602179055507ff9ffabca9c8276e99321725bcb43fb076a6c66a54b7f21c4e8146d8519b417dc826000809054906101000a900473ffffffffffffffffffffffffffffffffffffffff16604051808373ffffffffffffffffffffffffffffffffffffffff1673ffffffffffffffffffffffffffffffffffffffff1681526020018273ffffffffffffffffffffffffffffffffffffffff1673ffffffffffffffffffffffffffffffffffffffff1681526020019250505060405180910390a17fca4f2f25d0898edd99413412fb94012f9e54ec8142f9b093e7720646a95b16a981600160009054906101000a900473ffffffffffffffffffffffffffffffffffffffff16604051808373ffffffffffffffffffffffffffffffffffffffff1673ffffffffffffffffffffffffffffffffffffffff1681526020018273ffffffffffffffffffffffffffffffffffffffff1673ffffffffffffffffffffffffffffffffffffffff1681526020019250505060405180910390a160006011811115610c8157fe5b925050505b90565b6000809054906101000a900473ffffffffffffffffffffffffffffffffffffffff1681565b60007f45b96fe442630264581b197e84bbada861235052c5a1aadfff9ea4e40a969aa0836011811115610cdd57fe5b836013811115610ce957fe5b600060405180848152602001838152602001828152602001935050505060405180910390a1826011811115610d1a57fe5b90509291505056fea265627a7a72315820fe23d912e106fd2b1addfe0c58737fe94ace25d96b9ca60cd68cde4d41e60a6864736f6c63430005100032",
  "source": "// SPDX-License-Identifier: UNLICENSED\npragma solidity ^0.5.16;\n\nimport \"./ErrorReporter.sol\";\nimport \"./ComptrollerStorage.sol\";\n/**\n * @title ComptrollerCore\n * @dev Storage for the comptroller is at this address, while execution is delegated to the `comptrollerImplementation`.\n * CTokens should reference this contract as their comptroller.\n */\ncontract Unitroller is UnitrollerAdminStorage, ComptrollerErrorReporter {\n\n    /**\n      * @notice Emitted when pendingComptrollerImplementation is changed\n      */\n    event NewPendingImplementation(address oldPendingImplementation, address newPendingImplementation);\n\n    /**\n      * @notice Emitted when pendingComptrollerImplementation is accepted, which means comptroller implementation is updated\n      */\n    event NewImplementation(address oldImplementation, address newImplementation);\n\n    /**\n      * @notice Emitted when pendingAdmin is changed\n      */\n    event NewPendingAdmin(address oldPendingAdmin, address newPendingAdmin);\n\n    /**\n      * @notice Emitted when pendingAdmin is accepted, which means admin is updated\n      */\n    event NewAdmin(address oldAdmin, address newAdmin);\n\n    constructor() public {\n        // Set admin to caller\n        admin = msg.sender;\n    }\n\n    /*** Admin Functions ***/\n    function _setPendingImplementation(address newPendingImplementation) public returns (uint) {\n\n        if (msg.sender != admin) {\n            return fail(Error.UNAUTHORIZED, FailureInfo.SET_PENDING_IMPLEMENTATION_OWNER_CHECK);\n        }\n\n        address oldPendingImplementation = pendingComptrollerImplementation;\n\n        pendingComptrollerImplementation = newPendingImplementation;\n\n        emit NewPendingImplementation(oldPendingImplementation, pendingComptrollerImplementation);\n\n        return uint(Error.NO_ERROR);\n    }\n\n    /**\n    * @notice Accepts new implementation of comptroller. msg.sender must be pendingImplementation\n    * @dev Admin function for new implementation to accept it's role as implementation\n    * @return uint 0=success, otherwise a failure (see ErrorReporter.sol for details)\n    */\n    function _acceptImplementation() public returns (uint) {\n        // Check caller is pendingImplementation and pendingImplementation ≠ address(0)\n        if (msg.sender != pendingComptrollerImplementation || pendingComptrollerImplementation == address(0)) {\n            return fail(Error.UNAUTHORIZED, FailureInfo.ACCEPT_PENDING_IMPLEMENTATION_ADDRESS_CHECK);\n        }\n\n        // Save current values for inclusion in log\n        address oldImplementation = comptrollerImplementation;\n        address oldPendingImplementation = pendingComptrollerImplementation;\n\n        comptrollerImplementation = pendingComptrollerImplementation;\n\n        pendingComptrollerImplementation = address(0);\n\n        emit NewImplementation(oldImplementation, comptrollerImplementation);\n        emit NewPendingImplementation(oldPendingImplementation, pendingComptrollerImplementation);\n\n        return uint(Error.NO_ERROR);\n    }\n\n\n    /**\n      * @notice Begins transfer of admin rights. The newPendingAdmin must call `_acceptAdmin` to finalize the transfer.\n      * @dev Admin function to begin change of admin. The newPendingAdmin must call `_acceptAdmin` to finalize the transfer.\n      * @param newPendingAdmin New pending admin.\n      * @return uint 0=success, otherwise a failure (see ErrorReporter.sol for details)\n      */\n    function _setPendingAdmin(address newPendingAdmin) public returns (uint) {\n        // Check caller = admin\n        if (msg.sender != admin) {\n            return fail(Error.UNAUTHORIZED, FailureInfo.SET_PENDING_ADMIN_OWNER_CHECK);\n        }\n\n        // Save current value, if any, for inclusion in log\n        address oldPendingAdmin = pendingAdmin;\n\n        // Store pendingAdmin with value newPendingAdmin\n        pendingAdmin = newPendingAdmin;\n\n        // Emit NewPendingAdmin(oldPendingAdmin, newPendingAdmin)\n        emit NewPendingAdmin(oldPendingAdmin, newPendingAdmin);\n\n        return uint(Error.NO_ERROR);\n    }\n\n    /**\n      * @notice Accepts transfer of admin rights. msg.sender must be pendingAdmin\n      * @dev Admin function for pending admin to accept role and update admin\n      * @return uint 0=success, otherwise a failure (see ErrorReporter.sol for details)\n      */\n    function _acceptAdmin() public returns (uint) {\n        // Check caller is pendingAdmin and pendingAdmin ≠ address(0)\n        if (msg.sender != pendingAdmin || msg.sender == address(0)) {\n            return fail(Error.UNAUTHORIZED, FailureInfo.ACCEPT_ADMIN_PENDING_ADMIN_CHECK);\n        }\n\n        // Save current values for inclusion in log\n        address oldAdmin = admin;\n        address oldPendingAdmin = pendingAdmin;\n\n        // Store admin with value pendingAdmin\n        admin = pendingAdmin;\n\n        // Clear the pending value\n        pendingAdmin = address(0);\n\n        emit NewAdmin(oldAdmin, admin);\n        emit NewPendingAdmin(oldPendingAdmin, pendingAdmin);\n\n        return uint(Error.NO_ERROR);\n    }\n\n    // /**\n    //  * @dev Delegates execution to an implementation contract.\n    //  * It returns to the external caller whatever the implementation returns\n    //  * or forwards reverts.\n    //  */\n    // function () payable external {\n    //     // delegate all other functions to current implementation\n    //     (bool success, ) = comptrollerImplementation.delegatecall(msg.data);\n\n    //     assembly {\n    //           let free_mem_ptr := mload(0x40)\n    //           returndatacopy(free_mem_ptr, 0, returndatasize)\n\n    //           switch success\n    //           case 0 { revert(free_mem_ptr, returndatasize) }\n    //           default { return(free_mem_ptr, returndatasize) }\n    //     }\n    // }\n}\n",
  "sourcePath": "/Users/junlin.gao/go/src/github.com/notion/pledge-protocol/contracts/Unitroller.sol",
  "compiler": {
    "name": "solc",
    "version": "0.5.16+commit.9c3226ce.Emscripten.clang"
  },
  "schemaVersion": "3.3.4",
  "updatedAt": "2021-03-15T23:43:55.069Z",
  "devdoc": {
    "details": "Storage for the comptroller is at this address, while execution is delegated to the `comptrollerImplementation`. CTokens should reference this contract as their comptroller.",
    "methods": {
      "_acceptAdmin()": {
        "details": "Admin function for pending admin to accept role and update admin",
        "return": "uint 0=success, otherwise a failure (see ErrorReporter.sol for details)"
      },
      "_acceptImplementation()": {
        "details": "Admin function for new implementation to accept it's role as implementation",
        "return": "uint 0=success, otherwise a failure (see ErrorReporter.sol for details)"
      },
      "_setPendingAdmin(address)": {
        "details": "Admin function to begin change of admin. The newPendingAdmin must call `_acceptAdmin` to finalize the transfer.",
        "params": {
          "newPendingAdmin": "New pending admin."
        },
        "return": "uint 0=success, otherwise a failure (see ErrorReporter.sol for details)"
      }
    },
    "title": "ComptrollerCore"
  },
  "userdoc": {
    "methods": {
      "_acceptAdmin()": {
        "notice": "Accepts transfer of admin rights. msg.sender must be pendingAdmin"
      },
      "_acceptImplementation()": {
        "notice": "Accepts new implementation of comptroller. msg.sender must be pendingImplementation"
      },
      "_setPendingAdmin(address)": {
        "notice": "Begins transfer of admin rights. The newPendingAdmin must call `_acceptAdmin` to finalize the transfer."
      },
      "_setPendingImplementation(address)": {
        "notice": "* Admin Functions **"
      }
    }
  }
}